:100000000C9449060C947A060C947A060C947A06A1
:100010000C947A060C947A060C947A060C947A0660
:100020000C947A060C947A060C947A060C947A0650
:100030000C947A060C947A060C947A060C947A0640
:100040000C947A060C947A060C947A060C947A0630
:100050000C947A060C947A060C947A060C9446104A
:100060000C947A060C94BA100C9490100C947A06A6
:100070000C947A060C947A060C947A060C947A0600
:100080000C947A060C947A060C947A060C947A06F0
:100090000C947A060C947A060C947A060C947A06E0
:1000A0000C947A060C947A060C947A060C947A06D0
:1000B0000C947A060C947A060C947A060C947A06C0
:1000C0000C947A060C947A060C947A060C947A06B0
:1000D0000C947A060C947A060C947A060C947A06A0
:1000E0000C947A060C94EE060C94E4080C94C10669
:1000F0000C945F080C9401070C94EA060C94010818
:100100000C94E6060C9451080C943D080C940607D8
:100110000C942E080C94FC060C9402070C94CB064D
:100120000C94E0060C94F8060C94DC060C949708EA
:100130000C94D3060C94C7060C94CF060C94F010C4
:100140000C94D6060C94F40600002100240027002D
:100150002A002D00300033000101000004010701D6
:100160000A0100002200250028002B002E0031008B
:10017000340002010000050108010B01000020000D
:100180002300260029002C002F003200000100006F
:10019000030106010901050505050705080808080A
:1001A000020202020A0A080804040404010101010F
:1001B000010101010303030303030303040707070A
:1001C0000C0C0C0C0C0C0C0C0202020206060606AF
:1001D000060606060B0B0B0B0B0B0B0B010210207C
:1001E000200808102040102040800201020108046D
:1001F0000201010204081020408080402010080401
:100200000201800402018040201008040201080459
:10021000020101020408102040800102040810209D
:10022000408000000A0B02090C0D0E0807030401B0
:1002300000000000000000000000000000000000BE
:10024000000000000000000000000000000012118B
:10025000100000000000000000000000000000008E
:100260000000000000000000EFFFADD6EFFFEFFF41
:10027000ADD610841084EFFFEFFFADD6EFFFEFFF98
:10028000EFFFADD6108410841084ADD6EFFFADD64D
:10029000ADD6ADD6E318E318E318E318E318E31876
:1002A000ADD6EFFFEFFFE318E318E318E318E31808
:1002B000E318E3180000EFFFEFFFE318E318E3187B
:1002C000E318E318E318E3180000ADD6ADD6E31841
:1002D000E318E318E318E318E318E3180000ADD6B9
:1002E000ADD6E318E318E318E318E31800000000A4
:1002F0000000EFFFEFFFE318E318E318E318000036
:10030000000000000000EFFFEFFFEFFFE318000028
:100310000000000000000000EFFFADD6ADD6ADD666
:10032000EFFFEFFFEFFFEFFFADD6EFFFEFFFADD633
:10033000A0FAA0FAA0FAA0FAA0FAA0FAA0FAA0FAED
:10034000A0FAA0FAA0FAA0FAA0FAFFFFFFFFFFFFB1
:10035000FFFFFFFFA0FAA0FAA0FAFFFFFFFFFFFFD9
:10036000FFFFFFFFFFFFFFFFA0FAA0FAA0FAFFFFC9
:10037000FFFFFFFFFFFFFFFFFFFFFFFFA0FAA0FA55
:10038000A0FAFFFFFFFFFFFFFFFFFFFFFFFFFFFFE1
:10039000FFFFA0FAA0FAFFFFFFFFFFFFFFFFFFFF35
:1003A000FFFFFFFFFFFFA0FAA0FAA0FAFFFFFFFF89
:1003B000FFFFFFFFFFFFFFFFFFFFA0FAA0FAA0FA79
:1003C000FFFFFFFFFFFFFFFFFFFFFFFFFFFFA0FAA1
:1003D000A0FAA0FAFFFFFFFFFFFFFFFFFFFFA0FA59
:1003E000A0FAA0FAA0FAA0FAA0FAA0FAA0FAA0FA3D
:1003F000A0FAA0FAA0FAA0FAADD6ADD6EFFFEFFFB3
:10040000ADD6ADD6EFFFEFFFADD6ADD6ADD6EFFF93
:10041000EFFFEFFFEFFFEFFFEFFFEFFFEFFFADD6D7
:10042000EFFFEFFFEFFFEFFFEFFFEFFFEFFFEFFF5C
:10043000EFFFEFFFEFFFEFFFEFFFEFFFADD6ADD622
:10044000EFFFEFFFEFFFEFFFADD6EFFFEFFFADD612
:10045000ADD6ADD6ADD6EFFFEFFFADD6ADD6EFFF43
:10046000EFFFADD6ADD6ADD6ADD6EFFFEFFFADD633
:10047000EFFFEFFFEFFFEFFFADD6ADD6EFFFEFFFE2
:10048000EFFFEFFFEFFFEFFFEFFFEFFFEFFFEFFFFC
:10049000EFFFEFFFEFFFEFFFADD6EFFFEFFFEFFF57
:1004A000EFFFEFFFEFFFEFFFEFFFADD6ADD6ADD61D
:1004B000EFFFEFFFADD6ADD6EFFFEFFFADD6ADD678
:1004C000A002A00240054005A002A0024005400590
:1004D000A002A002A002400500C000C000F800F881
:1004E00000C000C04005A002400500C000C000C020
:1004F00000F800F800C000C000C04005400500C082
:1005000000C000F800F800F800F800C000C0400586
:10051000A00200F800F800F800C000C000F800F8E1
:1005200000F8A002A00200F800F800F800C000C027
:1005300000F800F800F8A002400500C000C000F874
:1005400000F800F800F800C000C04005400500C0F9
:1005500000C000C000F800F800C000C000C04005A6
:10056000A002400500C000C000F800F800C000C0B4
:100570004005A002A002A00240054005A002A00282
:1005800040054005A002A002A002A00240054005CF
:10059000A002A00240054005A002A002A002400562
:1005A0004005400540054005400540054005A002C6
:1005B0004005400540054005400540054005400513
:1005C0004005400540054005400540054005400503
:1005D0004005400540054005A00240054005400596
:1005E00040054005400540054005A002A002400529
:1005F0004005400540054005400540054005A00276
:1006000040054005400540054005400540054005C2
:1006100040054005400540054005400540054005B2
:100620004005400540054005A00240054005400545
:1006300040054005400540054005A002A002A0027B
:1006400040054005A002A00240054005A002A0020E
:10065000FFFFFFFFFFFFFFFFFFFFFFFFFFFFFFFFAA
:10066000FFFFFFFFFFFFFFFF14A514A514A514A5AE
:1006700014A514A5FFFFFFFFFFFF14A514A514A5E3
:1006800014A514A514A514A514A5FFFFFFFF14A518
:1006900014A5FFFFFFFFFFFFFFFF14A514A5FFFF39
:1006A000FFFF14A514A5FFFFFFFFFFFFFFFF14A529
:1006B00014A5FFFFFFFFFFFF14A514A514A514A5A3
:1006C00014A514A5FFFFFFFFFFFF14A514A5FFFF4E
:1006D000FFFFFFFFFFFF14A514A5FFFFFFFF14A5F9
:1006E00014A5FFFFFFFFFFFFFFFF14A514A5FFFFE9
:1006F000FFFF14A514A514A514A514A514A514A5ED
:1007000014A5FFFFFFFFFFFF14A514A514A514A552
:1007100014A514A5FFFFFFFFFFFFFFFFFFFFFFFF73
:10072000FFFFFFFFFFFFFFFFFFFFFFFFFFFFA21025
:10073000A210A210A210A210A210A210FFFFFFFF91
:10074000FFFFFFFFFFFFA210A210A210A210A21035
:10075000A210FFFFFFFFFFFFFFFFFFFFFFFFFFFFF5
:10076000A210A210FFFFFFFFFFFFFFFFFFFFFFFF31
:10077000FFFFFFFFA210A210FFFFFFFFFFFFFFFF21
:10078000FFFFFFFFFFFFA210A210A210FFFFFFFF5D
:10079000FFFFFFFFFFFFFFFFFFFFA210A210FFFF01
:1007A000FFFFFFFFFFFFFFFFFFFFFFFFA210A210F1
:1007B000A210FFFFFFFFFFFFFFFFFFFFFFFFFFFF95
:1007C000A210A210FFFFFFFFFFFFFFFFFFFFFFFFD1
:1007D000FFFFFFFFA210A210FFFFFFFFFFFFFFFFC1
:1007E000FFFFFFFFFFFFFFFFFFFFFFFFFFFFFFFF19
:1007F000FFFFFFFFFFFFFFFF753D753D753D753D39
:10080000753D753D753DFFFFFFFF753D753D753DC0
:10081000753D753D753D753D753DFFFFFFFF753DB0
:10082000753DFFFFFFFFFFFFFFFFFFFFFFFFFFFF24
:10083000FFFF753D753D753D753D753D753D753DDC
:10084000FFFFFFFFFFFF753D753D753D753D753D34
:10085000753D753D753DFFFFFFFF753D753DFFFF24
:10086000FFFFFFFFFFFF753D753DFFFFFFFF753D7C
:10087000753DFFFFFFFFFFFFFFFF753D753DFFFF6C
:10088000FFFF753D753D753D753D753D753D753D8C
:10089000753DFFFFFFFFFFFF753D753D753D753DE4
:1008A000753D753DFFFFFFFFFFFFFFFFFFFFFFFFF0
:1008B000FFFFFFFFFFFFFFFFFFFFFFFFFFFF0070D6
:1008C0000070007000700070007000700070FFFF1A
:1008D000FFFF007000700070007000700070FFFF7C
:1008E000FFFFFFFFFFFF00700070FFFFFFFFFFFF34
:1008F000FFFFFFFFFFFFFFFFFFFF007000700070B2
:100900000070007000700070FFFFFFFFFFFFFFFF2F
:10091000FFFFFFFFFFFFFFFFFFFF00700070FFFF03
:10092000FFFFFFFFFFFFFFFFFFFFFFFFFFFF007065
:100930000070FFFFFFFF00700070FFFFFFFFFFFF71
:10094000FFFF00700070FFFFFFFF0070007000707D
:1009500000700070007000700070FFFFFFFFFFFF6D
:10096000007000700070007000700070FFFFFFFFEB
:10097000FFFFFFFFFFFFFFFFFFFF04000400040075
:10098000FFFFFFFFFFFFFFFFFFFFFFFF040004006B
:1009900004000400FFFFFFFFFFFFFFFFFFFF040055
:1009A0000400FFFF04000400FFFFFFFFFFFFFFFF45
:1009B00004000400FFFFFFFF04000400FFFFFFFF2F
:1009C000FFFF040004000400FFFFFFFF0400040019
:1009D0000400FFFFFFFF0400040004000400040003
:1009E000040004000400FFFFFFFFFFFF04000400F9
:1009F0000400040004000400FFFFFFFFFFFFFFFFEF
:100A0000FFFFFFFFFFFFFFFF04000400FFFFFFFFEA
:100A1000FFFFFFFFFFFFFFFFFFFFFFFF04000400DA
:100A2000FFFFFFFFFFFFFFFFFFFFFFFFFFFFFFFFD6
:100A300004000400FFFFFFFFFFFFFFFFFFFFFFFFBA
:100A4000FFFFFFFFFFFFFFFFFFFFFFFFFFFFFFFFB6
:100A5000FFFF00B800B800B800B8FFFFFFFFFFFFBE
:100A6000FFFFFFFF00B800B8FFFFFFFF00B800B8AE
:100A7000FFFFFFFFFFFFFFFFFFFFFFFFFFFFFFFF86
:100A800000B800B800B8FFFFFFFFFFFFFFFFFFFF48
:100A9000FFFFFFFFFFFF00B800B8FFFFFFFFFFFFF2
:100AA000FFFFFFFF00B800B800B800B8FFFFFFFF6E
:100AB000FFFFFFFFFFFFFFFFFFFFFFFF00B800B8D2
:100AC00000B8FFFFFFFFFFFFFFFFFFFFFFFFFFFF7C
:100AD000FFFF00B800B8FFFFFFFFFFFF00B800B83E
:100AE000FFFFFFFF00B800B800B8FFFFFFFFFFFFE8
:100AF000FFFF00B800B800B800B800B8FFFFFFFF64
:100B0000FFFFFFFFFFFFFFFFFFFFFFFFFFFFFFFFF5
:100B1000FFFFFFFFFFFFFFFFFFFF40054005400510
:100B200040054005FFFFFFFFFFFFFFFF40054005B9
:100B300040054005400540054005FFFFFFFFFFFF62
:100B400040054005FFFFFFFFFFFF40054005FFFF99
:100B5000FFFFFFFFFFFFFFFFFFFFFFFF4005400517
:100B60004005FFFFFFFFFFFFFFFFFFFFFFFF400507
:100B700040054005FFFFFFFFFFFFFFFFFFFFFFFFF7
:100B8000400540054005FFFFFFFFFFFFFFFFFFFFA0
:100B9000FFFF400540054005FFFFFFFFFFFFFFFF90
:100BA000FFFFFFFF400540054005400540054005AB
:100BB0004005FFFFFFFFFFFF4005400540054005E2
:100BC000400540054005FFFFFFFFFFFFFFFFFFFF60
:100BD000FFFFFFFFFFFFFFFFFFFFFFFFFFFFFFFF25
:100BE000FFFFFFFF11001100FFFFFFFFFFFFFFFFEF
:100BF000FFFFFFFFFFFF110011001100FFFFFFFFCC
:100C0000FFFFFFFFFFFFFFFF1100110011001100A8
:100C1000FFFFFFFFFFFFFFFFFFFFFFFFFFFFFFFFE4
:100C200011001100FFFFFFFFFFFFFFFFFFFFFFFFAE
:100C3000FFFFFFFF11001100FFFFFFFFFFFFFFFF9E
:100C4000FFFFFFFFFFFFFFFF11001100FFFFFFFF8E
:100C5000FFFFFFFFFFFFFFFF110011001100110058
:100C600011001100FFFFFFFFFFFFFFFF1100110048
:100C70001100110011001100FFFFFFFFFFFFFFFF38
:100C8000FFFFFFFFFFFFFFFFFFFFFFFFFFFFFFFF74
:100C9000F01011241FBECFEFD1E2DEBFCDBF00E0C8
:100CA0000CBF12E0A0E0B2E0E2E4FFE200E00BBF24
:100CB00002C007900D92A033B107D9F726E0A0E358
:100CC000B2E001C01D92A53DB207E1F716E0C9E40C
:100CD000D6E000E006C021970109802FFE010E94A6
:100CE0007417C834D10780E00807A9F70E943C12A6
:100CF0000C949F170C9400006150710944E1469FC9
:100D00009001479F300D1124280F391F2F513D4F5F
:100D100064E070E090E080E06150710999F050E08B
:100D200040E04330510559F0F901E40FF51FE18D22
:100D3000E350E33008F401964F5F5F4FF2CF2C5E33
:100D40003F4FEACF08958150823108F05AC0E82F12
:100D5000F0E08827E155F94F8F4F0C947417CF06B8
:100D6000D306C106C706CB060107D606DC06E00699
:100D7000E606EA06EE06F406F8060107FC06020798
:100D80000607809180008F7780938000089580917E
:100D900080008F7DF9CF80918000877FF5CF84B56B
:100DA0008F7784BD089584B58F7DFBCF8091B0008F
:100DB0008F778093B00008958091B0008F7DF9CF38
:100DC000809190008F77809390000895809190009B
:100DD0008F7DF9CF80919000877FF5CF8091A00023
:100DE0008F778093A00008958091A0008F7DF9CF28
:100DF0008091A000877FF5CF809120018F7780932D
:100E000020010895809120018F7DF9CF80912001EC
:100E1000877FF5CFCF93DF93EAE5F2E08491E4E1B9
:100E2000F2E0D491EEECF1E0C491CC23A1F0811179
:100E30000E94A306EC2FF0E0EE0FFF1FE458FE4FD8
:100E4000A591B491EC91ED2381E090E009F480E06C
:100E5000DF91CF91089580E090E0FACF1F93CF9378
:100E6000DF93282F30E0F901EE5DFD4F8491F90109
:100E7000E452FE4FD491F901EA56FE4FC491CC23BF
:100E8000A9F0162F81110E94A306EC2FF0E0EE0FBF
:100E9000FF1FEE59FE4FA591B4918FB7F894EC91D6
:100EA000111108C0D095DE23DC938FBFDF91CF9165
:100EB0001F910895DE2BF8CFCF93DF9390E0FC01D4
:100EC000E452FE4F24918A569E4FFC018491882360
:100ED000D1F090E0880F991FFC01E85BFE4FA591CF
:100EE000B491FC01EE59FE4FC591D491623071F47A
:100EF0009FB7F8943C91822F809583238C93E8814F
:100F00002E2B28839FBFDF91CF9108958FB7F89440
:100F1000EC912E2B2C938FBFF6CF863308F086539F
:100F200020917B00982F9870277F922B90937B00C5
:100F30008770806480937C0080917A0080648093C5
:100F40007A0080917A0086FDFCCF809178009091A4
:100F5000790008953FB7F894809138029091390252
:100F6000A0913A02B0913B0226B5A89B05C02F3F45
:100F700019F00196A11DB11D3FBFBA2FA92F982FBF
:100F80008827BC01CD01620F711D811D911D42E0BA
:100F9000660F771F881F991F4A95D1F708958F9282
:100FA0009F92AF92BF92CF92DF92EF92FF924B014E
:100FB0005C010E94AA076B017C010E94AA076C19C0
:100FC0007D098E099F09683E734081059105A8F34C
:100FD00021E0821A9108A108B10888EEC80E83E0CA
:100FE000D81EE11CF11C81149104A104B10429F75D
:100FF000FF90EF90DF90CF90BF90AF909F908F9039
:101000000895AF92BF92CF92DF92EF92FF920F932B
:101010001F93CF93DF936C017B018B01040F151F8E
:10102000EB015E01AE18BF08C017D10759F06991F6
:10103000D601ED91FC910190F081E02DC60119954A
:10104000892B79F7C501DF91CF911F910F91FF9007
:10105000EF90DF90CF90BF90AF900895FC01538D3B
:10106000448D252F30E0842F90E0821B930B541782
:1010700010F0CF96089501970895FC01918D828D0F
:10108000981761F0A28DAE0FBF2FB11D5D968C91A8
:10109000928D9F5F9F73928F90E008958FEF9FEFE7
:1010A0000895FC01918D828D981731F0828DE80FA3
:1010B000F11D858D90E008958FEF9FEF0895FC015D
:1010C000918D228D892F90E0805C9F4F821B91092A
:1010D0008F73992708958CE392E00E945F0821E0C6
:1010E000892B09F420E0822F0895FC01A48DA80F1C
:1010F000B92FB11DA35ABF4F2C91848D90E001965A
:101100008F739927848FA689B7892C93A089B18979
:101110008C91837080648C93938D848D981306C01A
:101120000288F389E02D80818F7D80830895EF927E
:10113000FF920F931F93CF93DF93EC0181E0888F91
:101140009B8D8C8D98131AC0E889F989808185FF61
:1011500015C09FB7F894EE89FF896083E889F98903
:1011600080818370806480839FBF81E090E0DF9105
:10117000CF911F910F91FF90EF900895F62E0B8D58
:1011800010E00F5F1F4F0F731127E02E8C8D8E1113
:101190000CC00FB607FCFACFE889F989808185FF7A
:1011A000F5CFCE010E947508F1CFEB8DEC0FFD2F2E
:1011B000F11DE35AFF4FF0829FB7F8940B8FEA8935
:1011C000FB8980818062CFCFCF93DF93EC01888D44
:1011D0008823B9F0AA89BB89E889F9898C9185FDB2
:1011E00003C0808186FD0DC00FB607FCF7CF8C9140
:1011F00085FFF2CF808185FFEDCFCE010E9475087B
:10120000E9CFDF91CF91089580E090E0892B29F01C
:101210000E946B0881110E94000080E090E0892B01
:1012200049F080E090E0892B29F00E9400008111B4
:101230000E94000080E090E0892B49F080E090E07F
:10124000892B29F00E94000081110E94000080E09B
:1012500090E0892B49F080E090E0892B29F00E94F2
:10126000000081110C94000008950F931F93CF93F9
:10127000DF93FC01EC56FE4F1182108232961182F0
:101280001082DC011296ED91FC91AC0170E060E0FF
:10129000A1E06E177F07A4F4EC010881198130E00A
:1012A00020E0201731073CF4EA01C20FD31FAC83C2
:1012B0002F5F3F4FF6CF6F5F7F4F4C5E5F4FE9CFA1
:1012C000DF91CF911F910F910895EF92FF920F93AD
:1012D0001F93CF93DF93CDB7DEB7CA59D1400FB676
:1012E000F894DEBF0FBECDBF8C01DC0154962D916A
:1012F0003C9155972130310509F46FC008F467C05F
:101300002230310509F470C0D8011496ED90FC909C
:1013100015978D919C91B7010E946017FB01D80130
:1013200017967C936E93169712968D919C91B701A8
:101330000E946017D80119967C936E931897220F1C
:10134000331F269FC001279F900D369F900D1124BB
:1013500001961B969C938E931A97FA83E9837C835C
:101360006B83CB56DE4F19821882C559D140C956BE
:10137000DE4F19821882C759D140C756DE4F1982F5
:101380001882C959D140CE0101960E9435098AE9D7
:1013900091E0FE013196D801569601900D92019789
:1013A000E1F7C80146960E943509F801E055FE4F65
:1013B0001082C656DE4F0FB6F894DEBF0FBECDBF0B
:1013C000DF91CF911F910F91FF90EF90089588E2E8
:1013D00090E0F8019583848397CF8EE190E0159695
:1013E0009C938E93149790CF84E190E0F2CF8EBDC2
:1013F00000000DB407FEFDCF8EB508951F93CF9367
:10140000DF93182FC3E9D4E061E08A810E942E07A0
:1014100060E088810E942E07812F0E94F70961E019
:101420008881DF91CF911F910C942E071F93CF934A
:10143000DF93182FC3E9D4E060E08A810E942E0771
:1014400060E088810E942E07812F0E94F70961E0E9
:101450008881DF91CF911F910C942E07AF92BF929C
:10146000CF92DF92EF92FF920F931F93CF93DF9370
:10147000B82EA92EF62EE72ED42EC52E122F032F0E
:101480008AE20E94160AC3E9D4E061E08A810E94E0
:101490002E0760E088810E942E078A2D0E94F7099E
:1014A0008B2D0E94F7098C2D0E94F7098D2D0E942B
:1014B000F70961E088810E942E078BE20E94160ADC
:1014C00061E08A810E942E0760E088810E942E07D9
:1014D0008E2D0E94F7098F2D0E94F709802F0E9400
:1014E000F709812F0E94F70961E088810E942E0789
:1014F0008CE2DF91CF911F910F91FF90EF90DF90E1
:10150000CF90BF90AF900C94160ACF93DF932091A9
:10151000990430919A048217930718F520919B043F
:1015200030919C0462177307E0F4EA019B01AC015F
:101530000E942E0A61E0809195040E942E0760E0CF
:10154000809193040E942E078D2F0E94F7098C2F03
:101550000E94F70961E080919304DF91CF910C9490
:101560002E07DF91CF9108952F923F924F925F9275
:101570006F927F928F929F92AF92BF92CF92DF92A3
:10158000EF92FF920F931F93CF93DF9300D000D081
:101590001F921F92CDB7DEB729833A836D837E8376
:1015A000160169807A800E151F05B1F56016710667
:1015B00099F1C801B3010E9460174B012501B12CBC
:1015C000A12CAE14BF049CF5D12CC12CC016D106A1
:1015D0003CF5C501B4010E946017669DF001679D4E
:1015E000F00D769DF00D1124C601B4010E94601724
:1015F0006E0F7F1F660F771FED81FE81E60FF71FCD
:1016000045915491B201C1018C0D9D1D0E94850A26
:101610008FEFC81AD80ADACF88248394912CCECFC2
:101620008FEFA81AB80A8FEF481A580ACACF28961F
:101630000FB6F894DEBF0FBECDBFDF91CF911F91E3
:101640000F91FF90EF90DF90CF90BF90AF909F9061
:101650008F907F906F905F904F903F902F90089564
:101660002F923F924F925F926F927F928F929F92B2
:10167000AF92BF92CF92DF92EF92FF920F931F93A0
:10168000CF93DF9300D000D000D01F92CDB7DEB74C
:1016900029833A836D837E83160169807A808D81E8
:1016A0009E819A8789870E151F0509F03EC0601636
:1016B000710609F43AC0C801B3010E9460174B01DA
:1016C0002501B12CA12CAE14BF040CF039C0D12CD3
:1016D000C12CC016D1066CF5C501B4010E9460177B
:1016E000669DF001679DF00D769DF00D1124C601F9
:1016F000B4010E946017E60FF71FEE0FFF1F698508
:101700007A856E0F7F1FFB0185919491019649F0B8
:10171000FB0145915491B201C1018C0D9D1D0E94A8
:10172000850A8FEFC81AD80AD4CF88248394912CC5
:10173000C7CF9FEFA91AB90A2FEF421A520AC3CF97
:101740002A960FB6F894DEBF0FBECDBFDF91CF91C2
:101750001F910F91FF90EF90DF90CF90BF90AF90CF
:101760009F908F907F906F905F904F903F902F90C1
:1017700008952F923F924F925F926F927F928F9235
:101780009F92AF92BF92CF92DF92EF92FF920F9310
:101790001F93CF93DF93CDB7DEB768970FB6F8945A
:1017A000DEBF0FBECDBF6090E5027090E6022091D3
:1017B000E9023091EA02388F2F8B8091E7029091F5
:1017C000E8029E8B8D8BE3E9F4E0FA8BE98B21EE46
:1017D00032E03C8B2B8B1E861D86188A1F868F89D4
:1017E000988DEF85F889E817F9070CF09DC02989D5
:1017F0003A893C872B871A861986312C212C8D89B2
:101800009E89281639060CF078C0EB89FC89E20D18
:10181000F31D828C912C97E0891691040CF459C029
:1018200088E0E5E6F6E0DE01119601900D928A95DA
:10183000E1F740906B0650906C06EB85FC85828941
:101840008415150439F48091A3049091A4046816BA
:10185000790679F158864F82AD84BE84C984DA84D2
:101860007301830129813A814B815C816D817E8185
:10187000842D98850E94B40AF7E08F169104B4F085
:10188000F40183E0EE0FFF1F8A95E1F7E35AF94F69
:10189000AD84BE84C984DA84208131814281538140
:1018A00064817581868197810E94300BEB85FC8570
:1018B000428AFFEF2F1A3F0A2B853C852F5F3F4F4F
:1018C0003C872B8789859A85860D971D9A878987FE
:1018D00096CFC40123E0880F991F2A95E1F78B5C0E
:1018E000994F28E0FC01DE01119601900D922A9596
:1018F000E1F7FC0146805780A0CFEF85F88931964B
:10190000F88BEF8729893A892C5E3F4F3A8B298BD8
:101910008D859E85860D971D9E878D87EB89FC8919
:101920007496FC8BEB8B5BCF7092A4046092A30443
:101930008091310290913202019751F58091EF022E
:101940009091F002689E5001699EB00C789EB00C98
:1019500011248091ED029091EE02689E6001699ED3
:10196000D00C789ED00C1124730183012091750650
:10197000309176064091770650917806609179060D
:1019800070917A0680917B0690917C060E94300BC4
:1019900068960FB6F894DEBF0FBECDBFDF91CF9132
:1019A0001F910F91FF90EF90DF90CF90BF90AF907D
:1019B0009F908F907F906F905F904F903F902F906F
:1019C00008957F928F929F92AF92BF92CF92DF92B3
:1019D000EF92FF920F931F93CF93DF936B017A01E6
:1019E00000919D0410919E04C0919904D0919A0495
:1019F000C01BD10BD7FD2196D595C795882331F013
:101A00002A978AE0C81AD1080C5E1F4F56010C0FA6
:101A10001D1F84E1782E80919F049091A0048C0D6D
:101A20009D1DA816B90644F54E018016910604F5D1
:101A3000A701B501C4010E94850AE091A304F091B9
:101A4000A404C501BF010E9460179B01C401BF012E
:101A50000E946017729EF001739EF00D1124ED56E6
:101A6000FB4FE60FF71F128A8FEF881A980ADDCF17
:101A70008FEFA81AB80ACFCFDF91CF911F910F91A6
:101A8000FF90EF90DF90CF90BF90AF909F908F909E
:101A90007F900895AF92BF92CF92DF92EF92FF9224
:101AA0000F931F93CF93DF93CDB7DEB7C25BD140C7
:101AB0000FB6F894DEBF0FBECDBF10923202109267
:101AC000310280EF90E09A83898380E491E09C83E7
:101AD0008B831E861D86188A1F861A8A198A1C8A7D
:101AE0001B8A1E8A1D8AC555DE4F19821882CB5A61
:101AF000D140C355DE4F19821882CD5AD140C1550D
:101B0000DE4F19821882CF5AD140CF54DE4F18824F
:101B1000C15BD140CE54DE4F1882C25BD140CE01B2
:101B200001960E94650982EB91E0FE013196A1EEDB
:101B3000B2E001900D920197E1F78091DF02909160
:101B4000E0029093F6028093F50281EE92E00E940B
:101B500065090E94B90B88E0E9EDF2E0DE0111961B
:101B600001900D928A95E1F7E090DF02F090E0029B
:101B700080919F049091A0049C01220F331F220F9B
:101B8000331F821B930B20919B0430919C04820F86
:101B9000931F97FD01968C0115950795CE0101962F
:101BA0006C01B12CA12CF601419151916F018091F2
:101BB0009F049091A004A89EB001A99E700DB89EAC
:101BC000700D1124600F711F2091A1043091A204A7
:101BD000A29EC001A39E900DB29E900D1124680F8D
:101BE000791F81E0EA14FB0409F080E00E94E10C17
:101BF000FFEFAF1ABF0A83E0A816B104A1F6CE54D6
:101C0000DE4F0FB6F894DEBF0FBECDBFDF91CF9190
:101C10001F910F91FF90EF90DF90CF90BF90AF900A
:101C20000895FC0101900020E9F73197AF01481BAE
:101C3000590BBC018CE392E00C940108CF92DF9227
:101C4000EF92FF92E0914C02F0914D0282E080838E
:101C5000E0914802F09149021082E0914A02F0912D
:101C60004B028FEC808310925402E0915002F0916D
:101C7000510286E08083E0914E02F0914F02808114
:101C800080618083E0914E02F0914F0280818860F4
:101C90008083E0914E02F0914F02808180688083C2
:101CA000E0914E02F0914F0280818F7D80830E94EF
:101CB000AA07862F0E948D070E94F21661E08AE033
:101CC0000E945C0761E089E00E945C0761E088E0B7
:101CD0000E945C0762E088E30E945C07FFB6F8940C
:101CE00080913002811127C0EBECF1E08491E1E1B9
:101CF000F2E09491E82FF0E0EE0FFF1FE85BFE4F5B
:101D0000A591B491EC91E92321F461E085E30E946F
:101D10002E0761E085E30E945C078CB580618CBD75
:101D20008CB580648CBD61E084E30E945C0761E057
:101D300083E30E945C07809130028F5F80933002C2
:101D4000FFBE80E58CBD81E08DBD8AE090E0909380
:101D500094048093930489E090E090939604809398
:101D6000950488E090E0909398048093970480EF26
:101D700090E090939A048093990480E491E090938A
:101D80009C0480939B0484EB90E090939E0480934A
:101D90009D0488E290E09093A00480939F0484E1E6
:101DA00090E09093A2048093A10460E088E00E94F8
:101DB0002E0762E370E080E090E00E94CF0761E0D0
:101DC000809197040E942E0768E770E080E090E021
:101DD0000E94CF0781E00E94160A68E770E080E069
:101DE00090E00E94CF0788E20E94160A8FEC0E94C2
:101DF000160A80E00E94FE0983E80E94FE0980E343
:101E00000E94FE098DEE0E94160A84E60E94FE09D9
:101E100083E00E94FE0982E10E94FE0981E80E949F
:101E2000FE0988EE0E94160A85E80E94FE0981E0FC
:101E30000E94FE0989E70E94FE098BEC0E94160AA7
:101E400089E30E94FE098CE20E94FE0980E00E9464
:101E5000FE0984E30E94FE0982E00E94FE0987EFEA
:101E60000E94160A80E20E94FE098AEE0E94160A6B
:101E700080E00E94FE0980E00E94FE0980EC0E9442
:101E8000160A86E20E94FE0981EC0E94160A81E190
:101E90000E94FE0985EC0E94160A85E30E94FE0955
:101EA0008EE30E94FE0987EC0E94160A8EEB0E94C8
:101EB000FE0986E30E94160A88E40E94FE098AE36E
:101EC0000E94160A85E50E94FE0981EB0E94160A0F
:101ED00080E00E94FE098BE10E94FE0986EB0E94D1
:101EE000160A8AE00E94FE0982EA0E94FE0982EF39
:101EF0000E94160A80E00E94FE0986E20E94160AED
:101F000081E00E94FE0980EE0E94160A8FE00E9486
:101F1000FE0981E30E94FE098BE20E94FE098CE02B
:101F20000E94FE098EE00E94FE0988E00E94FE09E0
:101F30008EE40E94FE0981EF0E94FE0987E30E9461
:101F4000FE0987E00E94FE0980E10E94FE0983E00D
:101F50000E94FE098EE00E94FE0989E00E94FE09AF
:101F600080E00E94FE0981EE0E94160A80E00E9435
:101F7000FE098EE00E94FE0984E10E94FE0983E0D2
:101F80000E94FE0981E10E94FE0987E00E94FE098D
:101F900081E30E94FE0981EC0E94FE0988E40E9410
:101FA000FE0988E00E94FE098FE00E94FE098CE095
:101FB0000E94FE0981E30E94FE0986E30E94FE0959
:101FC0008FE00E94FE0981E10E94160A68E770E036
:101FD00080E090E00E94CF0789E20E94160A2091DB
:101FE0009B0430919C0421503109409199045091F7
:101FF0009A044150510970E060E090E080E00E9456
:102000002E0A61E0809195040E942E0760E0809185
:1020100093040E942E07C12CD12C760120919904A3
:1020200030919A04A0919B04B0919C040E947C176B
:10203000C616D706E806F90660F48CE10E94F70997
:1020400086E80E94F7098FEFC81AD80AE80AF80A4A
:10205000E5CF61E0809193040E942E0780EE97E027
:102060009093DA028093D90280EE9FEF9093DC0286
:102070008093DB0280E098EF9093DE028093DD0294
:10208000FF90EF90DF90CF900C944A0D1F920F922B
:102090000FB60F9211242F933F938F939F93AF937B
:1020A000BF938091340290913502A0913602B09195
:1020B00037023091330223E0230F2D3758F5019674
:1020C000A11DB11D209333028093340290933502F9
:1020D000A0933602B0933702809138029091390272
:1020E000A0913A02B0913B020196A11DB11D8093CF
:1020F000380290933902A0933A02B0933B02BF9109
:10210000AF919F918F913F912F910F900FBE0F90A4
:102110001F90189526E8230F0296A11DB11DD2CF5E
:102120001F920F920FB60F9211240BB60F922F939E
:102130003F934F935F936F937F938F939F93AF934F
:10214000BF93EF93FF938CE392E00E947508FF9199
:10215000EF91BF91AF919F918F917F916F915F911F
:102160004F913F912F910F900BBE0F900FBE0F908C
:102170001F9018951F920F920FB60F9211240BB655
:102180000F922F938F939F93EF93FF93E0914C02C5
:10219000F0914D028081E0915202F091530282FD54
:1021A0001DC09081809155028F5F8F7320915602E0
:1021B000821741F0E0915502F0E0E45CFD4F958F0D
:1021C00080935502FF91EF919F918F912F910F90E6
:1021D0000BBE0F900FBE0F901F9018958081F2CF0D
:1021E000ECE3F2E01382128288EE93E0A0E0B0E02C
:1021F00084839583A683B78388E092E0918380836C
:1022000085EC90E09587848784EC90E097878687BB
:1022100080EC90E0918B808B81EC90E0938B828BB3
:1022200082EC90E0958B848B86EC90E0978B868B8C
:10223000118E128E138E148EE3E9F4E01182108257
:1022400013821282158214821782168211861086DA
:1022500084EB90E09387828788E290E0958784877B
:1022600084E190E097878687E1EEF2E01586148698
:1022700017861686118A108A138A128A158A148A7A
:1022800010928C0410928B0410928E0410928D0484
:102290001092900410928F04109291041092920464
:1022A0001092E0021092DF02E5E9F6E08AE090E0A9
:1022B000918380839383828328EC3BE0358324835E
:1022C00021E030E037832683918780879387828758
:1022D00020E03BE03587248722E030E037872687FF
:1022E000918B808B938B828B28E33AE0358B248B08
:1022F00023E030E0378B268B918F808F938F828FF6
:1023000020E739E0358F248F24E030E0378F268FA7
:1023100091A380A393A382A328EA38E035A324A342
:1023200025E030E037A326A391A780A793A782A733
:1023300020EE37E035A724A726E030E037A726A710
:1023400091AB80AB93AB82AB28E137E035AB24ABEC
:1023500027E030E037AB26AB91AF80AF93AF82AFD1
:1023600020E536E035AF24AF28E030E037AF26AFC8
:10237000EDE8F6E0918380839383828328E835E05B
:102380003583248329E030E037832683E5E8F6E0CF
:10239000918380839383828320EC34E0358324838C
:1023A00097838683EDE7F6E091838083938382832E
:1023B00028EF33E0358324832BE030E03783268316
:1023C000E5E7F6E0918380839383828320E333E023
:1023D000358324832CE030E037832683EDE6F6E076
:1023E000918380839383828388E692E095838483BC
:1023F0008DE090E09783868388E0EDE7F6E0A5E343
:10240000B6E001900D928A95E1F788E0EDE8F6E0FC
:10241000ADE3B6E001900D928A95E1F788E0E5E83A
:10242000F6E0A5E4B6E001900D928A95E1F788E028
:10243000EDE8F6E0ADE4B6E001900D928A95E1F7A3
:1024400088E0EDE6F6E0A5E5B6E001900D928A950C
:10245000E1F788E0E5E8F6E0ADE5B6E001900D9241
:102460008A95E1F788E0EDE7F6E0A5E6B6E00190B1
:102470000D928A95E1F70895CF93DF93CDB7DEB73C
:1024800064970FB6F894DEBF0FBECDBF789484B5C5
:10249000826084BD84B5816084BD85B5826085BD60
:1024A00085B5816085BD80916E00816080936E00EE
:1024B00010928100809181008260809381008091E0
:1024C0008100816080938100809180008160809391
:1024D00080008091B10084608093B1008091B00051
:1024E00081608093B0008091910082608093910020
:1024F0008091910081608093910080919000816033
:10250000809390008091A10082608093A1008091CF
:10251000A10081608093A1008091A00081608093E0
:10252000A00080912101826080932101809121018E
:10253000816080932101809120018160809320013E
:1025400080917A00846080937A0080917A00826022
:1025500080937A0080917A00816080937A008091E4
:102560007A00806880937A001092C1000E941E0E4B
:1025700086E30E948D078C0187E30E948D077C0112
:102580000E940A073C0121E0E21622E0F2060CF06C
:10259000A1C091E080E0E11432E0F30609F490E09C
:1025A000E92EF82E013042E014070CF097C081E0CC
:1025B00090E00115124009F093C090E080E0E11432
:1025C000F10409F02AC1672809F0EAC180913102BB
:1025D00090913202009709F4EFC0019709F0E0C131
:1025E00080919104811184C24090EB025090EC02E2
:1025F0002091ED023091EE021216130614F021E044
:1026000030E08091EF029091F0021816190614F054
:1026100081E090E04091F7025091F802B9016D5FBE
:102620007F4F461757071CF49A01225031094091F9
:10263000F9025091FA02BC016D5F7F4F46175707B0
:1026400014F4CA01029741EE642E42E0742E630135
:10265000F12CE12CF201E170FF27FC87EB87A90147
:10266000415051095E874D87FC013197F88BEF8708
:102670004E5F5F4F5A8B498B3296FC8BEB8BA09051
:10268000F902B090FA02EA14FB040CF492C1C09073
:10269000F702D090F802912C812C8A149B040CF044
:1026A00018C210E000E00C151D050CF00BC2730100
:1026B000E00EF11EF701828D811109C0B401C8013D
:1026C0000E947C06009719F08A5FF701828F0F5FE6
:1026D0001F4FE9CFEE24EA94FE2C64CF8FEF9FEFDB
:1026E0002091310230913202232B09F096C08F3FA6
:1026F000980709F476C0019709F483C00E94B90BCA
:1027000088E0E9EDF2E0DE01119601900D928A95E4
:10271000E1F78090DF029090E00200919F04109119
:10272000A004C801880F991F880F991F081B190B57
:1027300080919B0490919C04080F191F17FF02C001
:102740000F5F1F4F159507959E012F5F3F4F590152
:10275000D12CC12CF501419151915F0180919F04D1
:102760009091A004C89EB001C99E700DD89E700DB6
:102770001124600F711F2091A1043091A204C29E08
:10278000C001C39E900DD29E900D1124680F791F39
:1027900081E08C149D0409F080E00E94E10CFFEFC1
:1027A000CF1ADF0A23E0C216D104A1F6EF2809F4FC
:1027B0000ACF672809F0F4C08091DF029091E0020F
:1027C0009093F6028093F50281EE92E00E946509F3
:1027D00041E050E050933202409331020E94B90B25
:1027E000DFC08091DF029091E0028130910531F0ED
:1027F00001979093E0028093DF0280CF82E090E027
:10280000F8CF8091DF029091E0028230910511F0C3
:102810000196EFCF90E080E0ECCF20913102309133
:1028200032022130310509F0CECE2091ED023091F7
:10283000EE02E20EF31E4091E7025091E802E41628
:10284000F50654F4F7FC08C03093F2022093F1022D
:10285000F092EE02E092ED022091EF023091F00250
:10286000820F931F4091E9025091EA028417950765
:1028700054F497FD08C03093F4022093F302909330
:10288000F0028093EF028091F3029091F402209184
:10289000F1023091F20244E1489FF001499FF00DAE
:1028A0001124EF51FD4FE20FF31F828C912C4090C9
:1028B000E5025090E602429EF001439EF00D529ECA
:1028C000F00D1124FA87E987489E1001499E300CCB
:1028D000589E300C1124F40127E08216910414F064
:1028E000E6E0F0E063E0EE0FFF1F6A95E1F7EB5CD6
:1028F000F94F5101C984DA8472018201208131814A
:102900004281538164817581868197810E94B40AD6
:1029100037E083169104A4F0F40153E0EE0FFF1F9B
:102920005A95E1F7E35AF94FC984DA84208131815D
:102930004281538164817581868197810E94300B29
:102940000091E5021091E6028091EF029091F00271
:10295000089F5001099FB00C189FB00C1124809162
:10296000ED029091EE02089F6001099FD00C189F24
:10297000D00C112478012091750630917606409193
:102980007706509178066091790670917A06809169
:102990007B0690917C060E94300B672809F420CEBC
:1029A00062E370E080E090E00E94CF070E9404099B
:1029B000DFCD2DB73EB73A8729874B855C85C201AD
:1029C000B501452B09F04EC00E9460178B01C8016C
:1029D000880F991FEDB7FEB7E81BF90B0FB6F894F7
:1029E000FEBF0FBEEDBF2DB73EB72F5F3F4F1901A2
:1029F0005901912C812C80169106D4F1A091F702F7
:102A0000B091F80220918B0430918C0490E080E02A
:102A10008A179B070CF044C04D855E858417950787
:102A20008CF0EF85F889EE16FF0664F049895A8923
:102A3000481759073CF0BB24B394EB89FC89EE1589
:102A4000FF050CF4B12CF10150E040E040175107B4
:102A5000FCF4619171918617970709F46AC14F5F81
:102A60005F4FF4CF0E9460178B010F5F1F4FAFCFF6
:102A70000E94EE166091F7027091F8020E946017B2
:102A8000F501819391935F01FFEF8F1A9F0AB3CFF6
:102A9000BB2021F0F601E80FF91F128E0196B8CF86
:102AA00030938C0420938B0489859A850FB6F89413
:102AB0009EBF0FBE8DBF9FEFE91AF90AE4E1CE0E6B
:102AC000D11CDDCDFFEF8F1A9F0A24E1620E711C2D
:102AD000E4CD81E0809392048093910486E192E0BA
:102AE0000E94110E89E192E00E94110E0E94B90B22
:102AF00064EF71E080E090E00E94CF070E940A0737
:102B0000892B09F08FC02091EF023091F002809163
:102B1000ED029091EE0244E1429FF001439FF00DDF
:102B20001124EF51FD4FE80FF91F428D842F90E0E3
:102B30008530910579F08230910559F580918F04A7
:102B40009091900401979093900480938F0481E07A
:102B5000828F0BC080918D0490918E040197909389
:102B60008E0480938D0453E0528F20918D04309118
:102B70008E0480918B0490918C042817390739F4C6
:102B800081E020918F0430919004232B81F180E02B
:102B90002EC0892B81F180918F0490919004209117
:102BA0008D0430918E0460918B0470918C04DC0153
:102BB000A20FB31FA617B70754F7442341F34330BE
:102BC00049F585E0828F2F5F3F4F30938E0420932D
:102BD0008D0480918D0490918E0468177907B9F661
:102BE00080918F0490919004892B89F681E091E087
:102BF0008927809392040E94B90B64EF71E080E012
:102C000090E00E94CF07809192048111C9CE0E946A
:102C10004A0DC6CE01969093900480938F0482E073
:102C2000828FD7CF86E192E00E94110E88E292E077
:102C30000E94110E6090EF027090F002E090ED02A1
:102C4000F090EE0284E1869D8001879D100D112495
:102C5000C8018F519D4F6C01CE0CDF1CF601828D97
:102C600090E08330910519F08530910571F4F4E11D
:102C7000F69DC001F79D900D11248F519D4FE80ED8
:102C8000F91E84E0F701828FB1CF019709F07FCF61
:102C9000B301C7010E947C0626E0280FF601228FAF
:102CA000892B09F074CF0E0D1F1D84E0A82EB12CC6
:102CB000F3E06F0E711C470121E0821A9108A80110
:102CC000475F5C4F6A0152E0E50EF11C23014A1890
:102CD0005B0881E0A81AB10809F459CFC401E4E106
:102CE000EA9D9001EB9D300D11248601021B130B10
:102CF0008E159F0559F31C01FFEF2F1A3F0AF801AB
:102D0000218D213091F4228D213049F0208D213008
:102D100031F025A5213019F02581213031F4B2019F
:102D20000E947C068A5FF801818F0F5F1F4FC101EF
:102D3000DFCFB110AFCEF601E80FF91F43E0428FAD
:102D40002F5F3F4FABCE8F929F92AF92BF92CF92A9
:102D5000DF92EF92FF92CF93DF93EC01688179814C
:102D60008A819B81611571058105910521F464E2D9
:102D700079ED8BE597E02DE133EF41E050E00E94E3
:102D8000FD1649015A019B01AC01A7EAB1E40E947A
:102D90001C176B017C01ACEEB4EFA50194010E94FD
:102DA0002A17DC01CB018C0D9D1DAE1DBF1DB7FF89
:102DB00003C00197A109B04888839983AA83BB8384
:102DC0009F77DF91CF91FF90EF90DF90CF90BF90F2
:102DD000AF909F908F9008950C94A31680E092E09E
:102DE0000C94A316B0E0A0E080930002909301023F
:102DF000A0930202B09303020895052E97FB1EF4E0
:102E000000940E94141757FD07D00E942F1707FC4B
:102E100003D04EF40C94141750954095309521959D
:102E20003F4F4F4F5F4F08959095809570956195F6
:102E30007F4F8F4F9F4F08950E945117A59F900D70
:102E4000B49F900DA49F800D911D11240895B7FF8C
:102E50000C941C170E941C17821B930B0895A1E26F
:102E60001A2EAA1BBB1BFD010DC0AA1FBB1FEE1F04
:102E7000FF1FA217B307E407F50720F0A21BB30B4F
:102E8000E40BF50B661F771F881F991F1A9469F7CB
:102E900060957095809590959B01AC01BD01CF0127
:102EA0000895A29FB001B39FC001A39F700D811D23
:102EB0001124911DB29F700D811D1124911D089543
:102EC00097FB072E16F4009407D077FD09D00E94D7
:102ED0008B1707FC05D03EF4909581959F4F089580
:102EE000709561957F4F0895EE0FFF1F881F8BBF70
:102EF0000790F691E02D19940E945117332312F494
:102F00008A1B9B0B0C9486170E945117B7FF0895DC
:102F1000821B930B0895AA1BBB1B51E107C0AA1F7C
:102F2000BB1FA617B70710F0A61BB70B881F991F6A
:102F30005A95A9F780959095BC01CD010895F89414
:022F4000FFCFC1
:102F42000100000000000000970801082E08E408B4
:102F52005F083D0851080D0A0067616D65207374B2
:102F620061727465643A2000444947213A200000A6
:00000001FF
